:10000000600F0020B91D00005F6D0000A51D0000FD
:10001000A51D0000A51D0000A51D0000000000009A
:10002000000000000000000000000000C11B0000F4
:10003000A51D0000000000006D1B0000A51D0000B4
:10004000251B0000251B0000251B0000251B0000B0
:10005000251B0000251B0000251B0000251B0000A0
:10006000251B0000251B0000251B0000251B000090
:10007000251B0000251B0000251B0000251B000080
:10008000251B0000251B0000251B0000251B000070
:10009000251B0000251B0000251B0000251B000060
:1000A000251B0000251B0000251B0000251B000050
:1000B000251B0000251B0000251B0000251B000040
:1000C000251B0000251B0000251B0000251B000030
:1000D000251B0000251B0000251B0000251B000020
:1000E000251B0000251B0000251B0000251B000010
:1000F000251B0000251B0000251B0000251B000000
:1001000053B94AB9002908BF00281CBF4FF0FF317E
:100110004FF0FF3000F06CB9ADF1080C6DE904CE82
:1001200000F006F8DDF804E0DDE9022304B07047D2
:100130002DE9F047089E0D4604468E46002B40F000
:1001400082808A42174646D9B2FA82F24AB1C2F197
:10015000200105FA02F320FA01F1974041EA030E6B
:1001600094404FEA1748230CBEFBF8FCB9B208FBD9
:100170001CEE43EA0E430CFB01F098420AD9FB182F
:100180000CF1FF3580F01681984240F21381ACF1FA
:10019000020C3B441B1AA4B2B3FBF8F008FB10336B
:1001A00044EA034400FB01F1A14209D93C1900F1E2
:1001B000FF3380F00181A14240F2FE8002383C44CE
:1001C000641A40EA0C4000211EB1D4400023C6E965
:1001D0000043BDE8F08702B9FFDEB2FA82F2002ADE
:1001E0004FD1CB1B4FEA174E1FFA87F80121B3FB03
:1001F000FEFC250C0EFB1C3345EA034508FB0CF303
:10020000AB4207D97D190CF1FF3002D2AB4200F2AC
:10021000E7808446ED1AA3B2B5FBFEF00EFB105545
:1002200043EA054408FB00F8A04507D93C1900F152
:10023000FF3302D2A04500F2D7801846A4EB080491
:1002400040EA0C40C0E78B4208D9002E00F0AF8096
:100250000021C6E900050846BDE8F087B3FA83F13E
:1002600000294BD1AB4202D3824200F2B780841AFC
:1002700065EB030301209E46002EAAD0C6E9004E7E
:10028000A7E7C2F1200C01FA02F3974020FA0CF024
:100290004FEA174E21FA0CFC1843BCFBFEF1050C8B
:1002A0000EFB11CC1FFA87F845EA0C4501FB08F359
:1002B000AB4204FA02F409D97D1901F1FF3C80F048
:1002C0008B80AB4240F2888002393D44EB1A85B204
:1002D000B3FBFEF00EFB103345EA034500FB08F3C9
:1002E000AB4207D97D1900F1FF3C71D2AB426FD907
:1002F00002383D44EB1A40EA014178E7C1F1200C95
:100300008B4022FA0CF71F4320FA0CF405FA01F394
:100310004FEA174E25FA0CF51C43230CB5FBFEF9EA
:100320001FFA87F80EFB195543EA054509FB08FA41
:10033000AA4502FA01F200FA01F308D97D1909F180
:10034000FF3047D2AA4545D9A9F102093D44A5EBA2
:100350000A05A4B2B5FBFEF00EFB105544EA0544B5
:1003600000FB08F8A04507D93C1900F1FF352DD254
:10037000A0452BD902383C4440EA0940A4EB0804CC
:10038000A0FB02894C45C6464D4619D316D05EB136
:10039000B3EB0E0264EB050404FA0CFCCA404CEA11
:1003A0000202CC40C6E900240021BDE8F0873146B6
:1003B00030460EE7AC46EDE6184601E74345E6D287
:1003C000B8EB020E69EB07050138E0E72846D3E7F2
:1003D00060468FE78146BAE7614677E708464BE714
:1003E000ACF1020C3D4415E702383C4426E700BF5F
:1003F000704700BF014B01221A7070478709002027
:10040000014B01221A70704785090020014B01221F
:100410001A70704786090020014B01221A7070473C
:1004200084090020014B01221A70704780090020C6
:10043000014B01221A70704782090020014B0122F2
:100440001A70704783090020014B01221A7070470F
:100450008109002043682DE9F0411B68D0F808802D
:10046000076901268E401E4204460D460ED10E49F4
:100470000E4A0F4840F2FD2306F04BFC0D4806F0F3
:1004800048FC0A4840F2FD2106F06FFB3B6823EA76
:1004900006063E60D8F80030294620464FF48872A0
:1004A000BDE8F041184700BF767600004C760000AA
:1004B000B4760000D17600002DE9F04104460D46E7
:1004C000436887681B68D0F8108001268E401E4262
:1004D0000ED11049104A114840F29D2306F019FC34
:1004E0000F4806F016FC0C4840F29D2106F03DFB3B
:1004F000D8F800301E42BE6929462046B44618BFCF
:100500004FF40033BDE8F04108BF4FF480234FF4AF
:10051000A0326047767600004C760000B47600008A
:10052000D1760000234B93F90030012B0CD12249E6
:100530000B68952B4FF0640220DC93FBF2F11F480F
:1005400002FB113206F0E5BB022B2FD11A490B68D2
:10055000632B4FF0640219DC93FBF2F1184802FBA5
:100560001132EFE714490B68312B4FF0640215DCB0
:1005700093FBF2F1134802FB1132E3E7963B0B6069
:100580001148B3FBF2F102FB1132DBE7643B0B6075
:100590000E48B3FBF2F102FB1132D3E7323B0B60A2
:1005A0000B48B3FBF2F102FB1132CBE7032BD9D09E
:1005B000704700BF3C01002030030020E3760000BC
:1005C0002777000074770000BA770000EE7700000C
:1005D0002B780000F8B5A84803F0BCFE044620B90B
:1005E000BDE8F840A54806F094BBA54806F091FB8D
:1005F0000B212046FFF72EFF011E04DAA148BDE8BB
:10060000F84006F086BB0C212046FFF723FF011EB1
:1006100001DA9D48F3E718212046FFF71BFF011E72
:1006200001DA9A48EBE719212046FFF713FF011E74
:1006300001DA9748E3E703212046FFF70BFF011E8D
:1006400001DA9448DBE704212046FFF703FF011E8F
:1006500001DA9148D3E71C212046FFF7FBFE011E7B
:1006600001DA8E48CBE71D212046FFF7F3FE011E7D
:1006700001DA8B48C3E70B212046FFF71DFF8949AC
:10068000894B4B6020464FF400638B6006F065FA9F
:100690000C212046FFF710FF8449854B4B60204614
:1006A0004FF480538B6006F058FA18212046FFF76C
:1006B00003FF8049804B4B6020464FF080738B6076
:1006C00006F04BFA19212046FFF7F6FE7B497C4BDA
:1006D0004B6020464FF000738B6006F03EFA03211A
:1006E0002046FFF7E9FE7749774B4B602046082309
:1006F0008B6006F032FA04212046FFF7DDFE7349D5
:10070000734B4B60204610238B6006F026FA1C21A9
:100710002046FFF7D1FE6F496F4B4B6020464FF0EC
:1007200080538B6006F019FA1D212046FFF7C4FEA6
:100730006A496B4B4B6020464FF000538B6006F0CC
:100740000CFA684E684D0024013C072C05D8DFE800
:1007500004F02D495A856070777E644B1C78644B99
:100760001B78002B634B1B7818BF0224002B624BB5
:100770001B7818BF0324002B604B1B7818BF05247F
:10078000002B5F4B1B7818BF0624002B5D4B1B789A
:1007900018BF0724002B337818BF0824002B18BF7C
:1007A00004240021A42005F0D7F9CDE74F4B002207
:1007B0001A7095F90030022B01DC01332B7095F98A
:1007C0000030012B17D1504806F0A3FA4F4B504888
:1007D0001A68642392FBF3F103FB112206F099FAE5
:1007E0000024DEE7424B00221A7095F90030012BFD
:1007F000E5DD013BE2E7022B01D14648E4E7032BAC
:10080000E4D14548E0E73B4B00241C70FFF78AFE2B
:10081000C7E7394B3D4A00241C7013680A33136044
:1008200064223B4893FBF2F102FB113206F071FAAD
:10083000B7E7324B354A00241C7013681433EEE7D7
:100840002F4B324A00241C7013683233E7E72D4BDC
:100850002E4A00241C7013686433E0E72B4F2F48A6
:100860003A686423002492FBF3F103FB11223470F5
:1008700006F04FFA3C6094E7617800006878000069
:1008800089780000A6780000CD780000F478000098
:100890001B7900004279000069790000907900001E
:1008A000B7790000D0020020F5030000DC02002030
:1008B00001040000E80200200D040000F402002002
:1008C0001904000000030020250400000C03002090
:1008D00031040000180300203D0400002403002020
:1008E00049040000840900203C0100208709002001
:1008F0008509002086090020800900208209002047
:100900008309002081090020DE79000030030020E7
:100910001A7A0000EE790000087A00002D7A0000B3
:100920002DE9F04F91B08B46029092461C4600256F
:100930009AF8000008B928465EE325280AF1010765
:1009400007D0029B594698470028C0F255830135CD
:1009500010E2182200210AA806F032FA9AF80130B3
:10096000252B78D0002294461646964610463946E6
:1009700017F8013B2B2B00F09D8000F29480202B78
:1009800000F09B80232B00F09A8028B19DF8300066
:1009900040F004008DF83000BEF1000F05D09DF846
:1009A000300040F008008DF830002EB19DF8300086
:1009B00040F010008DF83000BCF1000F05D09DF81C
:1009C000300040F020008DF830002AB19DF8302032
:1009D00042F040028DF830209DF8302002F04400B3
:1009E000442803D16FF386128DF830209DF8302013
:1009F0002A2B42F080028DF830207BD19DF83120E7
:100A000042F001024B1C8DF831201A782E2A9DF8F5
:100A100031200CBF0121002161F341028DF831200A
:100A200074D15A782A2A6AD0013300210A2618463E
:100A300010F8012BA2F13007092F40F28E809DF8AB
:100A400030200E91C2F3400040EAD17161F34102BF
:100A50008DF830205AE00AF102078DF833309DF806
:100A60003130D90740F1498154F8049BB9F1000FA6
:100A700007DA9DF8302042F004028DF83020C9F1E9
:100A800000095A0740F1428154F8048BB8F1000F75
:100A900080F241819DF831306FF341038DF83130A0
:100AA0004FF0FF3837E12D2B0CD0302B7FF46DAF9A
:100AB00001225CE74FF0010E59E7012657E74FF09E
:100AC000010C54E7012052E70CFB0202303A334696
:100AD0001E4616F8010BA0F13007092FF4D99942F0
:100AE00093D09DF830100D92D20F62F341018DF832
:100AF00030108AE70B4600224FF00A0CE8E79DF819
:100B0000312042F004028DF8312002331F4617F8DD
:100B1000012B6C2A41D025D8682A2BD06A2A46D0CE
:100B20004C2A4CD01F4617F8012B9DF831308DF818
:100B30003320782A00F2D980572A4DD8412A03D091
:100B4000453A022A00F2D1809DF83230042262F345
:100B500002038DF8323001239EE006FB012130397B
:100B6000034664E7742A26D07A2ADBD19DF8313017
:100B700006220DE05A78682A9DF8312006D101211D
:100B800061F3C6028DF831209F1CCCE71346022288
:100B900062F3C6038DF83130C5E75A786C2A9DF8A8
:100BA000312001D10421EBE713460322F0E79DF841
:100BB00031300522ECE79DF831300722E8E7BDF837
:100BC000303023F4F04323F0020343F4804343F036
:100BD0000203ADF83030A6E7A2F15801202900F257
:100BE000848001A050F821F0AD0C0000EB0C000057
:100BF000EB0C0000EB0C0000EB0C0000EB0C000019
:100C0000EB0C0000EB0C0000EB0C0000490B0000AB
:100C1000EB0C0000AD0C00006D0C0000490B000057
:100C2000490B0000490B0000EB0C00006D0C0000AC
:100C3000EB0C0000EB0C0000EB0C0000EB0C0000D8
:100C4000B50C0000AD0C0000D10C0000EB0C000056
:100C5000EB0C0000D10C0000EB0C0000AD0C000010
:100C6000EB0C0000EB0C0000AD0C00009DF8321006
:100C7000012003F0780360F30201402B8DF832105D
:100C800002BF9DF8301041F001018DF83010632A49
:100C900031D1003B18BF01239DF83020C2F3400141
:100CA0000B4363F341028DF83020D8E69DF83210F3
:100CB0000220DEE79DF8322003F07803A3F1400024
:100CC000032161F3020243428DF832204341E3E7FE
:100CD0009DF83220032113F0780F61F302028DF8A2
:100CE000322014BF01230023D6E79DF8303043F0B3
:100CF00001038DF830300023CEE79DF93020002A23
:100D0000B4BFDDF834904FF0FF39BAE69B077FF5AA
:100D1000C7AEDDF838809DF831200023CDE90D33D2
:100D20009DF8323003F00703012BC2F3C30236D122
:100D3000D31E042B20D8DFE803F00307071F1F0092
:100D400054F8040BC11704E0073424F00704F4E856
:100D50000201CDE90A019DF8303013F0030654D0AA
:100D600002983B465246594605F051FF0028C0F212
:100D700043810544BA46DBE554F8040B012A4FEAE7
:100D8000E071CDE90A0105D19DF828300A930023CE
:100D90000B93E0E7022ADED1BDF92800D2E7022B4F
:100DA00023D1D31E042B13D8DFE803F0030A0A1261
:100DB000120020680A900021231D0B911C46CAE7EF
:100DC000073424F00703F3E80201CDE90A01F5E74F
:100DD00054F8043B0A93012A4FF000030B93D3D03D
:100DE000022AB8D1BDF82830D0E7042B07D1073448
:100DF00024F00704F4E80201CDE90A01ABE7032B74
:100E000004BF54F8043B0A93A5E79DF83300782803
:100E1000B0D8622822D825283FF493AD5828A9D10C
:100E20000DF126030093DDE90A0104AB0CAA05F0DD
:100E3000A3FE8246B8F1000F0DF126000CDB9DF8F1
:100E40003020A0EB0A036FF3861298458DF830200E
:100E500002D9A8EB03030D9380463DE063381528C3
:100E600088D801A151F820F0E90E00004D0F0000D4
:100E7000750D0000750D0000750D0000750D00006A
:100E80004D0F0000750D0000750D0000750D000080
:100E9000750D0000AB0F0000790F00007D0F000002
:100EA000750D0000750D0000C10E0000750D0000ED
:100EB000790F0000750D0000750D0000790F00001E
:100EC000B8F1000FDDF828A00ADB4146504605F0D6
:100ED00057FF0AEB00080026BAF1000F0CD149E7D2
:100EE000504605F046FFF4E70A9B8DF810300026C7
:100EF0000DF111080DF1100AA8EB0A0306B1013338
:100F00009DF83220D0066BD5023352060D9948BFAA
:100F10000E9A0B4448BF9B18B9F1000F79DD9DF87C
:100F20003020A9EB0309C2F380030393530770D465
:100F3000500664D546B1029B594630469847002872
:100F40005ADB039B01351E46302359E01E0711D49E
:100F500013F0100618BF2026DDE90A23002A73F1DA
:100F60000001BFF65DAF524263EB4303CDE90A23B4
:100F70002D2655E72B26EFE7002651E70A9848B3C0
:100F80000DF1260300930CAA04AB002105F0F4FD3B
:100F9000BDF8323003F0EF0343F4F04343F01003A5
:100FA0008246ADF83230002644E70A9B072A3FF616
:100FB000E1AEDFE802F00D04060D08080D0D1D700E
:100FC000D8E61D80D6E62846E917C3E90001D1E638
:100FD0001D60CFE6DFF8C4800646A8F1050A8BE75E
:100FE000110748BF013390E7184603935946029B07
:100FF00098470028039B04DA11B0BDE8F08F202346
:101000004D444A46002AA5EB090109F1FF39EBDC02
:101010000D4636B1029B5946304698470028EBDB17
:1010200001359DF83230D90601D41A0706D5029B46
:101030005946302098470028DEDB01359DF83230D4
:10104000DB0607D59DF83300029B594698470028D8
:10105000D2DB01350D9E2E44731B002B16DC02984B
:1010600043465246594605F0D2FD0028C4DB0544EC
:10107000A944A9EB0503002B7FF77CAE029B5946E0
:10108000202098470028B7DB0135F2E7029B59463C
:10109000302098470028AFDB0135DDE74B7A0000B0
:1010A00038B54468816004F00304032C054602D07F
:1010B0002CB1002000E0006800236B6038BD054AB9
:1010C00005490648452305F024FE0248452105F060
:1010D0004CFDEEE74C7A00004D7B0000B47600003A
:1010E000014805F0A7BB00BF8874000008B5D0B167
:1010F0004368042B11D100220368BFF35B8F53E8D0
:10110000001F012903D143E800200028F7D1BFF3D5
:101110005B8F074808BF104608BD3BB1006803F06D
:1011200071FC0020F8E76FF4E040F5E70148F3E7D1
:10113000E98FFFFFEA8FFFFF10B5044618B90D4B8A
:101140000D485B689847616808290DD031F00403A9
:101150000AD011F0020108D00848214603F0EEFA47
:10116000002323600023636010BD2068142205F073
:1011700027FEF7E7DC0000206F7A00003403002030
:1011800010B5044618B9164B16485B689847636853
:10119000042B23D0082B21D0CBB92368BBB912482C
:1011A0004FF0FF324FF0FF33214603F05BFA08B9EE
:1011B00023681BB90A4B0D485B68984720681422C6
:1011C000002105F0FDFD636843F0020363602068C1
:1011D00005F0DCFF636843F00103636010BD00BFEE
:1011E000DC0000206F7A000034030020957A0000B4
:1011F00008B508B34368042B10D101220368BFF37C
:101200005B8F53E8001F002903D143E8002000282A
:10121000F7D1BFF35B8F0BD1002008BD53B100683D
:101220004FF0FF324FF0FF3303F0ECFA0028F3D019
:101230000348F2E70348F0E76FF4E040EDE700BF52
:10124000E98FFFFFEA8FFFFF08B5064906484023F4
:10125000142205F07FFFBDE808400449044805F06A
:101260004BBB00BF5403002034030020A0740000D7
:10127000907400002DE9F04FB0F81C9085B019F083
:10128000080F0446039222D001290CBF49F010092F
:1012900049F02009A0F81C901434204604F018FFEF
:1012A00068B99F4A9F49A048AC2305F032FD9F488A
:1012B000214605F02EFD9A48AC2105F056FC039B13
:1012C00083F31188BFF36F8F05B0BDE8F08F984F9F
:1012D000DFF8548209F00709022906D1204605F0FB
:1012E000C2FC0028D8D0012868D1D4F818B0A38B4C
:1012F000BBF1000F0ADA0026256823F00703C4E9D2
:10130000006643F00103A383019627E003F0070280
:10131000511F012934D8002123F00703062A25682C
:101320009BB2C4E900110CD18D422A4638BF0A464F
:101330002AB1E18B12680131E183002AF8D143F030
:101340000203A383204605F08EFC06460028DBD06E
:10135000A38B43F02003A38300230193A38B03F00B
:1013600007024A45029203D0A268002A40F0F080AA
:101370001DB9019A002A00F036814FF00009E9E01A
:10138000042A0ED123F007039AB2A283204605F067
:101390006AFC054618B142F02002A283002501959F
:1013A000DCE74046634940F21B133A4605F0B1FCC6
:1013B00040F21B11384605F0D8FBEFE7032835D182
:1013C000B9F1000F0BD05C4940464FF4AB733A467D
:1013D00005F09FFC4FF4AB71384605F0C6FB23685F
:1013E0005BB95649404640F257133A4605F091FC26
:1013F00040F25711384605F0B8FB23691B6801938A
:101400005BB94F4940464FF4AD733A4605F081FC55
:101410004FF4AD71384605F0A8FBA38B23F007030A
:1014200043F00603A3830025AB4697E7042832D197
:10143000B9F1020F0BD04349404640F25D133A46E2
:1014400005F067FC40F25D11384605F08EFBE38B3A
:101450005BB13D4940464FF4AF733A4605F059FC45
:101460004FF4AF71384605F080FB23695B68019348
:101470005BB93349404640F261133A4605F049FCF6
:1014800040F26111384605F070FBA38B23F007038F
:1014900043F00403C6E7052832D1B9F1010F0BD0A0
:1014A0002A4940464FF4B2733A4605F032FC4FF4F5
:1014B000B271384605F059FB23685BB91F494046B5
:1014C00040F265133A4605F024FC40F265113846B7
:1014D00005F04BFB23699B6801935BB918494046B3
:1014E0004FF4B4733A4605F014FC4FF4B471384627
:1014F00005F03BFBA38B23F0070343F0050391E7C3
:101500000C4940F26B133A46404605F002FC0025B8
:1015100040F26B11384605F028FB019584E700BFC7
:10152000657B00008B7B0000B4760000A27B00008E
:10153000C27A00004D7B0000E47A0000F07A0000DF
:10154000137B00002A7B0000407B00004F7B0000E3
:101550004FF0010943F0080304F1140AA383504635
:1015600004F0B6FD68B93A4A3A49AC23404605F062
:10157000D0FB3948514605F0CCFB3548AC2105F08D
:10158000F4FA039B83F31188BFF36F8FB9F1000F57
:1015900038D1002D4BD1019B13B1304920469847DB
:1015A0004FF02003EFF3118B83F31288BFF36F8F9B
:1015B0005046CDF80CB004F07DFD68B9244A2849A6
:1015C0008123404605F0A5FB2648514605F0A1FBC6
:1015D0001F48812105F0C9FA504604F089FDA38B0C
:1015E00023F00803A383A38BDA0628D523F0100386
:1015F000A3830121B4F81C9009F0070900297FF4A6
:101600006BAE49E6A1680029C3D00B68029A002B93
:1016100038BF002399464B6820461E465B46B047BC
:10162000B9F1000FB5D0D9F800304946EEE72946A8
:10163000029A2D685B46204605F031FBA9E713F0BE
:1016400020011EBF23F02003A3830221D2E700BFA5
:10165000657B00008B7B0000A27B00006916000008
:10166000B77B0000CC7B0000F8B504460D4600F1C6
:1016700014064FF02003EFF3118783F31288BFF3B2
:101680006F8F304604F016FD68B90C4A0C490D48BE
:10169000812305F03EFB0C48314605F03AFB074834
:1016A000812105F062FA304604F022FDA5613A4638
:1016B00020460121BDE8F840FFF7DCBD657B000056
:1016C000B77B0000B4760000CC7B00002DE9F0472A
:1016D00004460F4605F0F9FA051E5EDB04F1140915
:1016E0004FF02003EFF3118A83F31288BFF36F8F5B
:1016F000484604F0DFFC68B9384A39493948812343
:1017000005F007FB3848494605F003FB33488121C3
:1017100005F02BFA484604F0EBFCE38BA28B4FF666
:10172000FF718B4202F0070650D0022E24D1013304
:10173000E38335464FF00108484604F0C9FC68B918
:10174000264A2A492748AC2305F0E3FA28484946A7
:1017500005F0DFFA2148AC2105F007FA8AF3118879
:10176000BFF36F8FB8F1000F17D000233246394610
:10177000204605F094FA10E0930701D0062E0FD111
:1017800000233B606368F3B9C4E900773546FEB9CE
:10179000524602212046FFF76DFD2846BDE8F0873E
:1017A000052E18D0012E0BD012490E48124A40F2D5
:1017B000C91305F0AEFA104840F2C91105F0D5F989
:1017C0006FF0040504E01F606760DFE76FF00A0553
:1017D0004FF00008B0E76FF08505F9E7657B000082
:1017E000B77B0000B4760000CC7B00008B7B000050
:1017F000A27B00004F7B0000C27A00002DE9F84375
:1018000005464FF02003EFF3118683F31288BFF3F0
:101810006F8F234804F04EFC68B9224A22492348BE
:10182000812305F076FA1E49214805F072FA1D4819
:10183000812105F09AF91A4804F05AFC1D4B1C68E6
:10184000002C38BF00249CB11B4FDFF878804FF08C
:101850000C09D4E90132002D08BF13462BB198F8CA
:10186000142009FB02F2B85C98472468002CF0D1E0
:101870000B4804F02DFC68B90A4A10490B48AC2308
:1018800005F047FA06490E4805F043FA0548AC2131
:1018900005F06BF986F31188BFF36F8FBDE8F8830D
:1018A00054080020657B0000B77B0000B476000080
:1018B000CC7B000058080020640800208B7B0000CF
:1018C000A27B00002009002000F01F0301229A40A3
:1018D0000A4BBFF35B8F400903EB800050E8003FE9
:1018E00043EA020140E8001CBCF1000FF6D1BFF34F
:1018F0005B8F1A4214BF012000207047700800203F
:1019000030B51D4B1D7DBFF35B8F05F01F0301221A
:101910009A401A4B690985B0D04303EB810353E821
:10192000001F01EA000443E8004CBCF1000FF6D1AF
:10193000BFF35B8F114217D0114C0C2202FB054202
:1019400007CA01AB83E807000E4A7AB193E80700A3
:1019500005F052FA0020FFF751FF0C236B430022E1
:10196000E118E250C1E9012205B030BD82F31188CF
:10197000BFF36F8FEEE700BF200900206008002052
:1019800064080020F96D00002DE9F041374BDFF8C5
:10199000F4801C7D88B007462046FFF795FF60B9AC
:1019A0006E463A462146304605F0C0F996E80700F3
:1019B0000C2505FB048585E807000C23634308EB31
:1019C000030218F80300650904F01F06C8B37B1C66
:1019D0000FD0D2F808E02648264A4FF4004C0021E8
:1019E0000023ECFB0E01FEF78BFB0121381A04F0FB
:1019F00041FD03F08FF90120FFF700FFBFF35B8F7C
:101A00001D4B0122B24003EB850353E8001F114335
:101A100043E800100028F8D1BFF35B8F0C2303FBD1
:101A2000048494E8070005AB83E80700134A1AB161
:101A300093E8070005F0CDF9FFF762FF03F062FEBF
:101A400001200F4ABFF35B8F0123B340DB4302EB5E
:101A5000850555E8002F1A4045E800210029F8D1F6
:101A6000BFF35B8F08B0BDE8F08100BF2009002004
:101A70003F420F0040420F0060080020D36D00007D
:101A800070080020640800200B6801330B60014BD4
:101A90001B68184720000020014B1860704700BFEA
:101AA0002000002007B50B460021024601910348A3
:101AB00001A9FEF735FF03B05DF804FB891A0000A9
:101AC00008B54FF02002EFF3118382F31288BFF3C1
:101AD0006F8F00F0A1FC034805F01BF900F00AF835
:101AE000FCE700BFE47B0000014910220A60704758
:101AF00010ED00E072B6404080F31188BFF36F8FA5
:101B0000BFF34F8F30BF62B6BFF36F8F704700BF18
:101B100072B6494081F3118820BF80F3118862B604
:101B2000704700BF01B572B60B4A906900281EBF0E
:101B30000021916105F007FB62B6EFF30580A0F18B
:101B400010004FEAC0000549014409C99847BDE8A3
:101B5000014003490847000020090020D47200001A
:101B6000891D000030BFFFF7FDBF00BF12498A6822
:101B70004FF030001044EFF3098C80E8F01F202074
:101B800080F31288BFF36F8F0C4F4FF00066CA6965
:101B90008A603E60506F0023536780F3118804B55C
:101BA000104600F0E7FABDE8044002F1300090E88A
:101BB000F01F8CF3098870472009002004ED00E035
:101BC0001EF0040F0CBFEFF30880EFF3098081696A
:101BD00011F8021C0229FFD001B505F0B8F801BDCB
:101BE00043B2002B08DB012200F01F0002FA00F0D4
:101BF0005B09024A42F82300704700BF00E100E0A1
:101C0000054B420900F01F0053F82220012303FA7C
:101C100000F01040704700BF00E100E070B54C1CC0
:101C2000072C05460E460FD9114A1249124859236E
:101C300005F06FF81148314607232A4605F069F888
:101C40000B48592104F091FF6BB2002BACBF03F19C
:101C500060430B4B4FEA4414B8BF05F00F05E4B2E4
:101C6000AABF03F561435C5583F8004370BD00BF14
:101C70000D7C0000437C0000B47600005E7C000018
:101C800014ED00E00B4A08B50B4B22F07F029A607E
:101C9000BFF34F8FBFF36F8FD3F8882022F4700209
:101CA000C3F8882002F026FC04F050FD00F0F6F99D
:101CB00002F02AFC0000000000ED00E0094A0A4999
:101CC000936809689967094958674B6843F08053DE
:101CD0004B60002383F31188BFF36F8F9368986F75
:101CE000704700BF20090020C075000000ED00E033
:101CF00042F8203C009B42F81C3C0A49019B42F8F8
:101D0000183C029B42F8143C21F001014FF0807313
:101D100042F8043C42F8081C0023203A026543675D
:101D2000704700BF376D00000B4A0346906890B1C2
:101D300013F1160F406E05D0A0F120029A4206D88A
:101D4000834204D281422CBF0021012100E0002106
:101D5000002908BF002070472009002008B5094B62
:101D600098600D46144600F005FA204685F3098870
:101D7000002163B681F31188BFF36F8F0022002327
:101D800004F0D9FF20090020044B9968D8698842E3
:101D900003D003494FF080520A60704720090020A9
:101DA00004ED00E0EFF30880EFF3098101B572461E
:101DB00000F0AEF801BD00BF002080F31488BFF32F
:101DC0006F8F05F019FA00200D490860BFF34F8F9F
:101DD0000C4880F3088800F07DF9202080F31188FA
:101DE00009484FF40261401880F30988EFF314802A
:101DF0000221084380F31488BFF36F8FFFF742FF7F
:101E000094ED00E0600F0020E0100020234B70B53F
:101E100015469A6A9A6A9A6A044690071AD5586BC8
:101E20009A6A120616D519B19A6A22F080029A624D
:101E30009A6A9A6A9A6AD6060FD49B6A99070CD452
:101E40000024164A936A43F0FF03936200232B7029
:101E5000204670BD6FF01500EAE7104E73681A0552
:101E6000EED52146FFF760FF044618B180F30988DC
:101E70000224E6E7B36ADB06E2D5094A09490A48C3
:101E800040F2491304F045FF084804F042FF0448BB
:101E900040F2491104F069FED3E700BF00ED00E015
:101EA0009E7C0000D87C0000B4760000227D0000FB
:101EB0000D4B9A6A9A6A9A6A920508D59A6B9A6A41
:101EC000120404D518B19A6A22F400429A62064BB1
:101ED0009A6A9A6AD20558BF9A6A9A6A002042F4AE
:101EE0007F429A620870704700ED00E0074B9A6AE3
:101EF0009A6A9A6A9A6A9A6A9A6A9A6A6FEA02422D
:101F00006FEA12429A620020704700BF00ED00E0C5
:101F100070B5544B5C688AB00D46C4F308040026C3
:101F200086F31188BFF36F8F02F07F43B3F17F4FC9
:101F300008D102F00C03082B04D012075CBF054641
:101F400001267DB9484A4949494840F2F23304F034
:101F5000E0FE484804F0DDFE434840F2F23104F070
:101F600004FE002500238DF80730E31E032B72D8F2
:101F7000DFE803F002696D493A4BDC6A14F00204B1
:101F800069D1DA6A002A18DBDB6A5B004ED5AB69DF
:101F900033F8022C4DF602739A420DD003F16043E0
:101FA00003F626631B780BB30DF1070201212846C7
:101FB000FFF72CFF044600E02C689DF807309BB922
:101FC0002022294602A804F0F0FE099B002E44D0EE
:101FD000C3F3080222B96FEA53236FEA432309933C
:101FE00002A9204604F0B1FE0AB070BD224B1B7856
:101FF0002BB10DF107010120FFF75AFFDAE71F4B64
:102000001B889BB213B1FFF771FFD3E71C49164A37
:10201000174840F2C32304F07CFE1A4804F079FE0E
:1020200040F2C321104804F0A0FDC6E714490E4A4F
:102030000F4840F2C72304F06CFE134804F069FE19
:1020400040F2C721EEE70DF107020021AFE70DF1E5
:1020500007010020D0E70024AFE723F4FF7323F04B
:102060000103BCE700ED00E09E7C0000457D000020
:10207000B4760000587D000029ED00E02AED00E074
:102080004D7B0000967D0000BA7D0000024A536936
:1020900043F010035361704700ED00E00448002353
:1020A0002021C2180133302B82F80013F9D1704778
:1020B00000E100E0064A11680023C1F30721184639
:1020C0008B4200D17047936010610133F8E700BF85
:1020D00090ED00E008B572B6002383F31388FFF794
:1020E000E9FF144B4FF0FF32C3F88020C3F884207F
:1020F000C3F88820C3F88C20C3F89020C3F894203C
:10210000C3F89820C3F89C20C3F88021C3F8842129
:10211000C3F88821C3F88C21C3F89021C3F8942117
:10212000C3F89821C3F89C2162B6BFF34F8FBFF369
:102130006F8F08BD00E100E0064B9B68834207D12A
:10214000EFF3058323B1044A536843F0805353608F
:1021500003F040BD2009002000ED00E0024B034ADF
:102160000348012100F068B80000042000000020AE
:10217000B4740000426E054B203A1A60044A2021D4
:10218000C3E901121846012100F07EB8740800204E
:1021900000000B15F0B51E4F00268E4201DB1046E5
:1021A000F0BD446884B353B104F1FF3C14EA0C0F52
:1021B00018D11F2C16D905681CEA050F12D1202C46
:1021C0000568D0F808C0D2B20FD9B4F1004F0ED8CC
:1021D000013CB4FA84F4C4F11F046400072A4CEAF9
:1021E000040406D96FF01502D9E70824F6E73E2467
:1021F000F4E725F01F05154345F0100544F00104F0
:10220000BA60FD6001323C6101360C30C5E700BFA9
:1022100090ED00E0034B05225A60BFF34F8FBFF3F0
:102220006F8F704790ED00E0BFF35F8F014B00228E
:102230005A60704790ED00E038B50E4D01232A78C2
:102240000C46FFF7A7FF2870163011D140F211138A
:10225000094A0A490A4804F05CFD2146094804F08D
:1022600058FDBDE83840044840F2111104F07DBC2F
:1022700038BD00BF88090020EA7D00004D7B0000CA
:10228000B4760000217E000010B5124A00231278B7
:102290000C46FFF77FFF10F1160F08D00E4B0022FF
:1022A000072800DD10BD98601A610130F8E70B4A7D
:1022B0000B490C484FF4987304F02BFD21460A4853
:1022C00004F027FDBDE8104004484FF4987104F075
:1022D0004CBC00BF8809002090ED00E0EA7D0000C2
:1022E0004D7B0000B47600004D7E0000254910B5FE
:1022F0000C68082C13D94FF4A473234A23492448AB
:1023000004F007FD23480822214604F002FD1E4880
:102310004FF4A47104F029FC4FF0FF3010BDFFF71B
:1023200083FF48681C490022944200F10C0019D137
:102330001A4B1C70FFF76EFF0B68C3F30723082BC3
:102340000ED01749104A12484FF4D47304F0E1FC40
:10235000144804F0DEFC0C484FF4D47104F005FC82
:102360000020DBE78A6050F80C3C23F01F03134386
:1023700043F01003CB6050F8043C43F001030B61C1
:102380000132D1E7C0740000EA7D00004D7B0000FF
:10239000B47600007A7E000090ED00E0880900200D
:1023A000AE7E0000FE7E0000014B1860704700BF4B
:1023B000240000204FF02003EFF3118183F31288F3
:1023C000BFF36F8F0F4A0123C2F840354FF08042B0
:1023D000C2F878350C4A1268082A08D10B4A1268EC
:1023E000052A04D80A48825C0AB10A4A13604FF0F1
:1023F00080430122C3F8802581F31188BFF36F8FDA
:102400000020704700E0014030010010340100104E
:102410002E7F0000380600404FF08043C0B2C3F862
:102420001C05BFF34F8F0549054BCA6802F4E062F3
:102430001343CB60BFF34F8F00BFFDE700ED00E01B
:102440000400FA0520B1034B800143F00103184753
:10245000704700BF807400002DE9F041104C071B4D
:10246000C7F347174FF00C0808FB07F8064608F1BA
:1024700048000D462044402104F0C9FC011E09DB40
:10248000084B4444C4E91035074B53F83730BDE8D6
:10249000F041184730462B46BDE8F041184700BFD1
:1024A00090080020716E0000F874000038B5CCB2BE
:1024B000012C054609D9094909480A4A792304F03B
:1024C00028FC0848792104F050FB2B690C2104FBFF
:1024D0000134A06C00F0070038BD00BF717F000020
:1024E000B4760000347F0000F8B5CCB2012C076947
:1024F000054616460BD918491848194A40F24D139B
:1025000004F007FC164840F24D1104F02EFB4FF08A
:102510002003EFF3118283F31288BFF36F8F0C2334
:1025200003FB0471896C11F0C00101D08E4210D1FF
:1025300003FB047301219964002082F31188BFF327
:102540006F8F28B9696801EBC4046368984700205D
:10255000F8BD4FF0FF30F0E7717F0000B476000067
:10256000347F000070B50D460649411A04464911F2
:1025700005484022FFF7B8FF2B4601462046BDE83C
:1025800070401847900800205C720000002270B56F
:10259000012104461046FFF741FB0020FFF720FB16
:1025A0000F4801F053F80F4B984215D101F072F823
:1025B00026690D49304604F097FB00280BDB012506
:1025C000B5642469084904F1200004F08DFB00285B
:1025D00001DB6565002070BD6FF00400FBE700BF04
:1025E000212600000000AD0B0875000001460C23F9
:1025F00009484B4370B5C418D4E91056002248333B
:102600002264184404F021FC2DB132462B460348C5
:10261000BDE87040184770BD900800205C72000053
:10262000012808B506D0032808D0A8B9104B9B6C28
:102630005B071BD1BDE80840FFF7D8BF0D490E4A24
:102640000E4840F25E2304F064FB40F25E21BDE8D8
:102650000840094804F089BA0649074A074840F289
:10266000622304F056FB40F26221F0E708BD00BF90
:10267000900800204D7B0000347F0000B4760000FD
:1026800008B54FF02003EFF3118183F31288BFF3F5
:102690006F8F124A136843F0020013F001031060B9
:1026A0000CD04FF08042D2F80C34D2F80C2413F046
:1026B000010303D00A4804F0C8FB012381F3118809
:1026C000BFF36F8F23B1BDE808400020FFF78EBF36
:1026D000BDE80840012000F0FDBF00BFE808002071
:1026E000D8080020094BBFF35B8F53E8002F22F07E
:1026F000020143E800100028F7D1BFF35B8FD30736
:1027000002D4012001F03AB8704700BFE808002069
:102710001FB500220123CDE90223094ACDF800D0DC
:102720006B46CDF804D004F0B5FB002805DB4FF470
:1027300080420023684603F03FFB05B05DF804FBD0
:102740008F6E00002DE9F8434949BFF35B8F0546C2
:10275000012251E8003F41E800200028F9D1BFF3F1
:102760005B8FA3B9434944484B60CB608A60FEF756
:10277000ADFF00280BDA41494148424A4FF4087343
:1027800004F0C7FA3F484FF4087104F0EEF9ADB316
:102790006B1E012B56D8012D07D14FF08043D3F883
:1027A0001C3403F00303012B28D004F016FD04466B
:1027B00018B9354B1B78002B52D14FF02003EFF3A3
:1027C000118683F31288BFF36F8F01242F4FDFF838
:1027D000C480DFF8C4904FF08042D2F81834D2F8A9
:1027E0001824D2030CD503F00303012B01D0012DD3
:1027F00006D10CB386F31188BFF36F8FBDE8F88361
:10280000ACB13046FFF784F94FF08042D2F818356A
:10281000002BE0D139680029DDD03B603B68012303
:10282000C2F81835C8F88031C9F80030D3E7002164
:10283000212003F091F9E7E74FF080430222C3F82B
:102840000423DBE712490E480E4A40F2322304F01B
:1028500060FABDE8F8430B4840F2322104F085B934
:102860004FF080430222C3F808230646AEE700BFBC
:10287000EC08002080080020B0080020957F0000B0
:10288000B4760000347F0000890900200401004074
:102890004D7B000000E100E00800004008B5084B57
:1028A0000848186004F045FC38B10748FFF77CFD84
:1028B0000548FFF7F1F8002008BD6FF01200FBE7B4
:1028C000F0080020BC720000CD2800000A2838B5AE
:1028D000074D044604D1286883680D215B6898473A
:1028E00028688368E1B25B689847204638BD00BF1E
:1028F000F008002070B5056916460C4661B92249FA
:10290000224A2348242304F004FA224804F001FA5E
:102910001E48242104F029F9636863B91E491B4A43
:102920001B48252304F0F5F91C4804F0F2F9174878
:10293000252104F01AF96B685BB100229C4213D187
:1029400023685AB9AA686B60944200D1AB60002337
:10295000236076B9002070BD0B46EFE71360AB68CB
:102960009C4208BFAA60F2E719681A460029F3D111
:102970003EB16B682360A8686C600028EAD1AC6047
:10298000E9E76FF01500E6E7D17F0000A47F0000C3
:10299000B4760000DA7F0000E97F0000FB7F0000D2
:1029A00043092DE9F04703D0012B36D0BDE8F0876D
:1029B0001B4F3B695C68002CF8D02568DFF86C8001
:1029C000DFF86C90DFF86CA000F01F000126002DEE
:1029D00006FA00F638BF0025A3681E4214D06368CB
:1029E00063B9494645234246504604F092F90D48E2
:1029F00004F08FF94521404604F0B7F8D4E90132DC
:102A00002146324038469847002DCFD02B68002B06
:102A100038BF00232C461D46DEE7034FC9E700BF41
:102A200074720000FB7F00008C720000A47F000025
:102A300012800000B47600007FB54068057B01F08D
:102A40001F04B2F5005F44EA45144FF0000504D1BD
:102A5000204601F02BFA002054E0B2F5804FCDE97A
:102A6000025551D1B3F5003F0CBF042305238DF867
:102A70000830836823FA01F111F0010155D1B2F554
:102A8000A03F52D166094AD04FF6FF73012E08BF0E
:102A9000194604F01F05E940CA070BD42B492C48FE
:102AA0002C4A40F2292304F034F92A4840F2292123
:102AB00004F05BF86EB1012E34D027492448254A32
:102AC00040F22E2304F025F9224840F22E2104F092
:102AD0004CF84FF0A04305F5E07553F82530DB07BF
:102AE00023D40DF107052946204601F009F91B4BB7
:102AF000984219D1284601F063F9194B984213D036
:102B00006FF00B0004B070BDB3F5C02F05D0B3F566
:102B1000003F0CBF02230123A9E70323A7E74FF0DF
:102B2000FF31B6E70F4BD6E703950023194602AAFB
:102B3000204600F0C7FF0A4B984204D101212046ED
:102B400001F044F987E76FF00400DBE751800000F3
:102B5000B47600001E8000004D7B00000400AD0B29
:102B60000000AD0B0003005010B501F019F9044648
:102B700068B901F0EDF8084B98420AD107482146A0
:102B800001F0B8F8224605210620FFF747F800209B
:102B900010BD6FF00400FBE70000AD0BA1290000A1
:102BA0002DE9F04347683B7B01F01F0585B00E46D9
:102BB00045EA43151446CAB902A9284601F0A0F80F
:102BC0000446284601F094F9484B984204D06FF02F
:102BD000040005B0BDE8F083844205D19DF80800EB
:102BE00001F0E8F8A042F2D10020F2E74FF000092E
:102BF0000DF103013046CDE9029901F081F84B4611
:102C0000804602AA4946284600F05CFF374B9842AE
:102C100002D06FF01500DCE7804503D19DF803007A
:102C200001F0C8F8A3054ED5314B324A23409342F8
:102C30003AD00CD8062B14D004D893B1022BE8D18B
:102C400004230EE0B3F5801FE3D1012309E02A4AF3
:102C500093422BD0B3F5A00F2AD0B3F5800FD8D173
:102C600002238DF8043084F48073C3F30023E0065C
:102C70008DF8053054BFC4F34013032321058DF8AC
:102C8000063017D57B68012101FA06F6C3F80865FE
:102C9000002201A9284600F0BDFF144B984214BF42
:102CA0006FF01500002094E70723DAE70523D8E743
:102CB0000323D6E7620541BF7B68012101FA06F6CE
:102CC000C3F80C65E4E7E3064FF0000354BFC4F318
:102CD000401403241A4601A928468DF8044000F048
:102CE000F1FE024B98423FF47FAF92E70000AD0B3C
:102CF0000600F0000600100002004000F0B54B791D
:102D0000012B26D0032B21D110268B79032B1DD12B
:102D1000CC790CB1012C19D10A7912B1022A15D142
:102D20000E220B684568B3F5164F2D6865D02DD877
:102D3000B3F5165F64D016D8B3F5966F62D00AD893
:102D4000B3F5967F61D0B3F5167F61D06FF0850043
:102D500052E00026D9E7B3F5166F5CD0B3F5965F65
:102D6000F4D1374B3CE0B3F5E14F57D007D8B3F57A
:102D7000615F55D0B3F5964FE8D1324B30E047F65E
:102D80001227BB42E2D14FF4000329E0B3F5613FC3
:102D900048D013D8B3F5963F47D009D84DF6C02791
:102DA000BB4244D0B3F5614FD0D14FF46B0317E071
:102DB000B3F5E13FCAD14FF0EB7311E0B3F5612FEA
:102DC00038D008D8204FBB4237D0B3F5E12FBDD162
:102DD0004FF0E86304E01D4FBB42B7D14FF0805382
:102DE000C5F82435036903C9344322430433C5F8C5
:102DF0006C2583E803000020F0BD4FF41D03EFE7CE
:102E0000134BEDE74FF49E23EAE74FF4A033E7E7D7
:102E10004FF41C33E4E74FF41D23E1E70D4BDFE7EC
:102E20000D4BDDE74FF06C73DAE70C4BD8E74FF44E
:102E30006503D5E74FF07063D2E74FF08063CFE7CB
:102E400000B0130000A04E0090D0030040420F00DD
:102E50000050270000C0750000F03A0000903A01D1
:102E60000268530910B504462CD0012B4FF6FF73AE
:102E700018BF002302F01F02D340DB070BD4144914
:102E80001448154A40F2292303F043FF124840F248
:102E9000292103F06AFE236803F01F025B09226008
:102EA0000DD0012B11D00D490A480B4A40F22E23B8
:102EB00003F02FFF084840F22E2103F056FE4FF09A
:102EC000A04010BD4FF0FF33D4E70548F9E700BF3D
:102ED00051800000B47600001E8000004D7B000091
:102EE00000030050F8B5066905460F4604F075F971
:102EF00010B92C4B1B7883B94FF02003EFF31184EA
:102F000083F31288BFF36F8F284604F04EF828BB76
:102F100084F31188BFF36F8FEEE76424284604F032
:102F200044F870B9012004F092F8013CF6D1002178
:102F3000212002F011FEF0E784F31188BFF36F8FB8
:102F4000F5E74FF02003EFF3118483F31288BFF30A
:102F50006F8F284604F029F80028EDD006F8107F7E
:102F600069680B680122C3F84465C3F8482500224C
:102F7000C3F82021D3F82001C3F85821D3F85821F1
:102F80004A68D20641BF0822C3F800254FF48002E8
:102F9000C3F8042301229A6084F31188BFF36F8F72
:102FA000F8BD00BF890900202DE9F743D0F804805F
:102FB0000769D8F800400023C4F800353860456838
:102FC000EB680646581C13D001A80193FFF748FF91
:102FD000019A01239340C0F80835EB68019301A8DA
:102FE000FFF73EFF019B03F5E073032240F8232027
:102FF0002B69591C11D02A7F0193002A01A814BF04
:103000004FF003094FF00009FFF72AFF019B03F57A
:10301000E0734FEA890240F823206B695A1C13D0F1
:1030200001A80193FFF71CFF019A01239340C0F808
:1030300008356B69019301A8FFF712FF019B03F5A7
:10304000E073032240F82320AB69581C11D06A7F3B
:103050000193002A01A814BF4FF003094FF00009A3
:10306000FFF7FEFE019B03F5E0734FEA890240F88B
:103070002320D5E903122B68C3F80C15C3F81425D7
:10308000D5E90512C3F808153169C3F810250431D4
:103090003046FFF733FE0546002846D1D8F8043005
:1030A000990719D507F1120001F020F8224B984238
:1030B0003FD1B87CC30003F1804303F5F83304F13A
:1030C0000C0204F59071C3F81015C3F814251B4ABF
:1030D00001238340C2F804350823C4F8003598F86A
:1030E00008305BB9C4F81031D4F8103107F111037E
:1030F000C4F834350123C4F838352360D8F80430D7
:103100009A075CBF4FF48072C4F80423DB0644BF07
:103110004FF48003C4F8043310370023C4F8447517
:10312000C4F848350123A360E360284603B0BDE836
:10313000F0836FF00405F8E70000AD0B00F00140EC
:10314000194970B5044622F07F460868C1E900239A
:10315000A6F50013101AB3F5400F4FF000050AD280
:10316000124B19680A060B0A9219114943F1000320
:10317000C1E90023012503F0CDF9A30003F1804349
:1031800003F58833D3F84025B2420BD11DB94FF473
:103190000002C3F84025074B4FF4803000FA04F4D6
:1031A000C3F8444370BD00BFC001002014090020D3
:1031B000A80100200010014010B501238340114AEE
:1031C000BFF35B8FDC4352E8001F01EA040C42E8C6
:1031D00000CEBEF1000FF6D1BFF35B8F4FF480320B
:1031E00002FA00F002F1804202F58052C2F80803B0
:1031F000BFF35F8FBFF36F8F0B4214BF012000201E
:1032000010BD00BF100900200123124ABFF35B8FDD
:10321000834052E8001F194342E8001CBCF1000F34
:10322000F7D1BFF35B8F0C4A4FF480338340C2F871
:1032300004330A4BBFF35B8F1B68BFF35B8F23FA2A
:1032400000F0C30742BF064B4FF40032C3F8002121
:10325000704700BF10090020001001400C09002039
:1032600000E100E00D4B1B68190A1806BFF35F8FE1
:103270000B4BD3F80435C01841F10001B3F5801FA2
:103280000AD2084BD3E90023994208BF904203D2E7
:1032900010F1807041F10001704700BF1409002057
:1032A00000100140A80100202DE9F04F85B016461E
:1032B0001F460546FFF780FF0190FFF7D3FFB94295
:1032C00008BFB0427FD2B6EB000867EB01090023CC
:1032D0004FF080724B4508BF4245C0F08580444B9B
:1032E00003EB0513D3E902239F4208BF964254D053
:1032F0004FEA85094FF4803B09F1804905F15008F8
:103300000BFA05F209F588394FEA88081FFA88F8A0
:103310000292384AD9F8400526F07F4308F18048E8
:1033200008F588381C469346D2F804A5A0EB0A009D
:1033300020F07F402AF07F410128C9F8401505D1CF
:103340000393132003F053FF2A4A039B02990AF1C7
:10335000020CA4EB0C0020F07F40B0F5000F88BFFA
:1033600064460020C8F80000D8F80000CBF84413E9
:1033700024F07F40C9F84005DBF80405824506D0FB
:10338000201A023820F07F40B0F5000F19D8E41A57
:1033900024F07F44321947F10003154C290104EB56
:1033A0000510C0E902230E9A0F9B6250436000246F
:1033B000019B13B12846FFF727FF204605B0BDE863
:1033C000F08F2046B0E701230B4ABFF35B8FAB4081
:1033D00052E8001F194342E800100028F8D1BFF35B
:1033E0005B8F32463B46D8E76FF01504E0E700BF3D
:1033F000B0010020001001400C09002073B5194BEA
:10340000194D00244FF0FF304FF0FF31C5F808454B
:10341000C3E902014FF48033C5F80433134B02268D
:103420004FF400320121C5F804631120C3F8802154
:103430002246FEF7F3FB1120FEF7D2FB0C4A0123D4
:1034400013600C4A2B6013600B4B0C4A00930194E1
:1034500000232046FFF728FF3046FFF773F9204688
:1034600002B070BDB00100200010014000E100E09A
:10347000081001401009002041310000FFFF7F00CB
:103480002DE9F743344CD4F804339A0709D5334B6C
:103490001A6832B100221A60314A1B68136801337E
:1034A00013604FF02003EFF3118283F31288BFF310
:1034B0006F8FD4F80433DB0312D5BFF35B8F294B36
:1034C00053E8001F21F0010043E80006002EF7D169
:1034D000BFF35B8F244B002936D11968002933D103
:1034E000002382F31188BFF36F8F53B3FFF7BAFE47
:1034F00006464FF02003EFF3118083F31288BFF3E9
:103500006F8F1A4BD3E90289494508BF46454FF0F2
:1035100000021ED34FF0FF364FF0FF37D3E90015FE
:10352000C3E902671A604FF48033C4F8483380F36C
:103530001188BFF36F8F21B1009542464B460020A2
:10354000884703B0BDE8F083002119601B680123A0
:10355000C7E71146EBE700BF00100140041101402E
:10356000140900200C09002040110140B001002086
:10357000144B13B5B0F1FF3F08BF1846441E002C92
:103580001EDD9C42A8BF1C46FFF76CFE0E4B0F4988
:10359000D3E90023801AB0F5000F28BF00240130C2
:1035A000044408480091844228BF044612194FF091
:1035B0000000019043F10003FFF776FE02B010BD5A
:1035C0000024E1E7FFFF7F00C0010020413100003F
:1035D00008B5FFF747FE024B1B68C01A08BD00BFC5
:1035E000C001002008B578B101281CD0144A154943
:1035F00015484FF44F7303F08CFB11484FF44F7193
:1036000003F0B3FA00200DE031B14FF08043D3F85E
:10361000183403F003030B604FF08043D3F8180411
:10362000C0F3004008BD31B14FF08043D3F80C34F3
:1036300003F001030B704FF08043D3F80C04EFE765
:10364000898000004D7B0000B476000010B5044670
:1036500048B90A490A480B4ABD2303F05AFB0948F6
:10366000BD2103F082FA084B1A7922B901220748DA
:103670001C609A8010BD0648FCE700BFFA8000007D
:10368000B4760000BD800000180900200000AD0BDA
:103690000C00AD0B08B50B4B1B794BB90A490B4815
:1036A0000B4AD62303F035FB0948D62103F05DFA17
:1036B0000020FEF7A5FA18B9BDE80840FEF790BA59
:1036C00008BD00BF1809002008810000B476000082
:1036D000BD800000224B1B7913B504465BB921491C
:1036E0002148224A4FF4897303F013FB1F484FF41B
:1036F000897103F03AFA74B1012C27D01B4A1C4996
:1037000019484FF4A27303F004FB18484FF4A27158
:1037100003F02BFA16E001A92046FFF763FF4FF0F4
:10372000804388B1019A012A0ED1C3F81825114BA4
:1037300000221A601B684FF080430222C3F8042362
:1037400001229A6002B010BD0022EEE70A4B00226F
:103750001A601B684FF08043C3F804431C60F1E714
:103760001809002008810000B4760000BD80000028
:103770004D7B0000040100400001004037B52F4D93
:103780002A7904465AB92E492E482F4A40F24B1343
:1037900003F0BFFA2C4840F24B1103F0E6F97CB17C
:1037A000012C28D029492748274A40F2671303F003
:1037B000B0FA254840F2671103F0D7F903B030BDE5
:1037C0004FF080430222C3F80823C3F8044103F5F5
:1037D000827301221B681E4B42F210741A60002192
:1037E0000846FFF7FFFE0028E8D0012003F02FFC79
:1037F000013CF4D1E2E74FF080430022C3F80843D4
:10380000C3F8002103F580731B68124B1C608DF810
:10381000074042F210740DF107010120FFF7E2FEAC
:1038200010B900236B71C9E79DF807000128F8D192
:1038300003F00DFC013CEED1F3E700BF18090020B6
:1038400008810000B4760000BD8000004D7B0000C0
:103850000C00004004000040164B07B51A686AB11E
:1038600000221A601B684FF080430122C3F808232E
:10387000114B587910B95A711B6898470F4B1A6849
:103880006AB10020186001A91B68FFF7ABFE019A1E
:103890004FF0804332B90122C3F818259A6003B073
:1038A0005DF804FB0222C3F80823034B01201B68C8
:1038B0009847F4E700010040180900200401004087
:1038C00070B501250368B3FA83F2202AC2F11F0400
:1038D00014D0BFF35B8F05FA04F223EA020250E82A
:1038E000006F9E4204D140E8002CBCF1000FF6D1DD
:1038F000BFF35B8FE6D102480C7070BD0148FCE756
:103900000000AD0B0200AD0B0368CB40DB0710B528
:1039100015D4012303FA01F10368BFF35B8F41EA79
:10392000030250E8004F9C4204D140E8002CBCF157
:10393000000FF6D1BFF35B8FEED1024810BD0248F5
:10394000FCE700BF0000AD0B0400AD0B054B0830D9
:1039500033F8100000F02200A0F122035842584131
:10396000704700BF5000002070B500F108030C4CF8
:1039700034F81330DA0505460E4607D5C3F3432362
:1039800004EBC30254F8333052689847A3682BB154
:10399000E26831462846BDE87040184770BD00BF58
:1039A00050000020194B083010B533F81020D10515
:1039B0001DD5C2F3432122F4F85223F8102003F15D
:1039C0001004002034F8022B12F4807F03D0C2F3DD
:1039D000432291420BD001303028F3D1002243F82A
:1039E00031200B48FFF790FF0A4B984200D110BDE1
:1039F00009490A480A4A4FF4997303F08AF9BDE865
:103A0000104007484FF4997103F0AFB85000002000
:103A1000C40000200000AD0B8A810000B4760000D5
:103A20002681000038B50A4C00F1080534F815303D
:103A30009A0606D55B0B074A03F5A273002142F8EC
:103A40002310FFF7AFFF002324F8153038BD00BF67
:103A5000500000200060004010B50446006803F0EC
:103A6000F8FA58B912491348134A40F2292303F0CF
:103A700050F9114840F2292103F077F8236803F048
:103A80001F025B0922600DD0012B0ED00B490948A3
:103A9000094A40F22E2303F03CF9074840F22E2158
:103AA00003F063F84FF0A04010BD0548FCE700BFED
:103AB00051800000B47600001E8000004D7B0000A5
:103AC00000030050F0B5044685B017461D46F1B11D
:103AD000FFF73CFF10B14A4805B0F0BD0B46CDE9F9
:103AE00000008DF80E008DF80F000DF10F020DF1A2
:103AF0000E01204603F0C2FA424A04F1080132F8EE
:103B0000113023F0020343F0010322F8113097B182
:103B10003C4B3E787A6804F1080033F810108F07A8
:103B20000CD5002AD7D133F8102022F01C0242EA2B
:103B3000860223F81020CDBB3348CDE721F02001C9
:103B4000C904C90C23F81010002AECD0032EC2D8E7
:103B500017782EB92D4A07F5A27142F82160E2E7E5
:103B6000BA0002F1804202F5C04241EA4731D2F880
:103B700010C52CF0030CC2F810C5D2F810C52CF4F7
:103B80004F3C2CF4407CC2F810C5D2F810E54FEA47
:103B9000042C0CF47C5C4EEA064E4CEA0E0C41F010
:103BA000200123F81010C2F810C5BCE7D5E9006762
:103BB0002046FFF7F7FE002EBED0124D2B689E4226
:103BC00004D16B689F4201D100220AE010480DF138
:103BD0000F01FFF775FE0C4B98427FF47DAF9DF807
:103BE0000F2045F8326005EBC20308345F6035F8FA
:103BF000143043EA422343F4807325F814309BE7E2
:103C00000400AD0B500000200000AD0B0060004030
:103C1000C4000020F0B5044685B0154609B300F194
:103C20000807314E36F81730980701D49A0658D451
:103C300013F01C0F02D04B78012B52D001238DF8CA
:103C40000F300023CDE900134A1C8B1C20460DF1D8
:103C50000F0103F013FA36F8173043F0030326F888
:103C6000173015B9214805B0F0BD1F4E04F1080703
:103C700036F81700830734D595F800C061468900EF
:103C800020F0200001F18041C00401F5C041C00CCA
:103C900026F817000023C1F810356A78002AE1D011
:103CA000D1F81035AD7823F4991323F4F853C1F803
:103CB0001035D1F810E5230203F47C53120443EAD3
:103CC0000E0302F440322D05134305F4801540EA3B
:103CD0004C302B4340F0200026F81700C1F8103577
:103CE000C0E70348BFE700BF500000200000AD0B55
:103CF0000400AD0B014BC3E90201704750000020E6
:103D000038B504460D4659B90B490C480C4A40F2E7
:103D1000352302F0FEFF0A4840F2352102F025FF6C
:103D20000834084B33F814309A0643BF5B0B2B70F2
:103D30000548064838BD00BF9E810000B4760000EB
:103D400026810000500000200000AD0B0400AD0BE8
:103D500038B50E4C94F87850B5B96022294604F174
:103D6000100003F02DF80620FDF73AFF084B094834
:103D70001D601B68084B4FF00042C3F80423012369
:103D800084F87830636738BD0448FCE750000020B1
:103D90007C6100400000AD0B006000400500AD0BF1
:103DA000034B93F87800003818BF0120704700BF1C
:103DB0005000002001460148FFF7A6BDC0000020CA
:103DC00001460148FFF77CBDC0000020F7B5314D2A
:103DD00000F10807044635F8173013F01C0F0E46A3
:103DE0000BD12D492D482E4A40F2DF3302F091FFCE
:103DF0002B4840F2DF3102F0B8FE35F81700830699
:103E00001FD510F002031CD1410B084603F032F914
:103E100000F1804000F5C040036003688B0003F1AF
:103E2000804303F5C043D3F8102542F00102C3F8E4
:103E3000102526B11B4A01238B40C2F8043303B07E
:103E4000F0BD5EB918491548154A40F2EE3302F04C
:103E500060FF134840F2EE3102F087FE35F817306C
:103E6000C3F38203042B10D0052B10D001A80194BA
:103E7000FFF7F2FD019BD0F81015D94001F00101C8
:103E80000231204603F045F9D9E70321F9E7022181
:103E9000F7E700BF50000020A8810000B4760000C2
:103EA0002681000000600040BD8100000E4B00F143
:103EB000080233F81230990613D59A0711D45B0B18
:103EC00001229A409B00094903F1804303F5C04356
:103ED000C1F80823D3F8102522F00302C3F81025F7
:103EE0007047002103F015B9500000200060004029
:103EF0000E4B00F1080213B513F81230DB0704462D
:103F000011D5FFF7D3FF2046FFF78CFD01A80194E0
:103F1000FFF7A2FD019B03F5E073022240F8232086
:103F2000034802B010BD0348FBE700BF500000206B
:103F30000000AD0B0400AD0B2DE9F04F654B66485A
:103F40006649002589B001222C461E6836B1D0F89A
:103F5000046316421EBF1C601E68154304338B4267
:103F60004FEA4202F1D15E4F3B687BB34FF0A04372
:103F70005C4ED3F820250692C3F82025D6F82035CC
:103F80000793C6F8203501960DF118094FF0000887
:103F90004FF0010BD9F80030F3B908F12008B8F15F
:103FA000400F09F10409F5D13B603B6801994FF0DE
:103FB000A043D3F820250692C3F82025019BD3F80F
:103FC00020350793C1F820351343DDD10124002D9E
:103FD00068D109B0BDE8F08F93FAA3F3B3FA83F385
:103FE00008EB030606F108023F4B059633F8122052
:103FF000C2F38203F40802939A4606AB06F0070068
:104000000BFA00FC185D20EA0C001855910805A871
:104010000391FFF721FD059C039904F5E0744B071C
:1040200050F82440C4F3014423D551463046FFF7ED
:104030009BFC05A80596FFF70FFD059A02F5E072B7
:10404000E4B250F82220C2F30142944207D1002189
:10405000304603F05EF82146304603F05AF805A8D2
:104060000596FFF7F9FC059B0BFA03F3C0F8203522
:1040700090E7022C0CBF03210221304603F049F8DF
:10408000029B032B04D0022C07D1BAF1010FE6D119
:1040900051463046FFF768FCE1E7032CDFD1BAF167
:1040A000020FF4E795FAA5F3B3FA83F304FA03F2E7
:1040B0009B0003F1804303F5C04325EA0205D3F8D2
:1040C0001005D3F81015C0F30520C1F30141FFF727
:1040D0004BFC7CE700610040006000402061004034
:1040E0007C61004000030050500000200146014860
:1040F000FFF7E6BBCC000020034B1868A0F10803D3
:1041000058425841704700BF30010010064B1B68F1
:10411000082B06D1054B1B68052B02D8044AD05C3E
:1041200070470020704700BF3001001034010010BC
:10413000CE810000024AD2F80034002BFBD0704739
:1041400000E0014010B5FFF7D7FF40B14FF08043CA
:104150000022C3F80C21C3F81021C3F83825FFF75B
:10416000CBFF002846D04FF080525B4BD2F80414AE
:10417000C3F82015D2F80814C3F82415D2F80C148B
:10418000C3F82815D2F81014C3F82C15D2F814145B
:10419000C3F83015D2F81814C3F83415D2F81C142B
:1041A000C3F84015D2F82014C3F84415D2F82414EB
:1041B000C3F84815D2F82814C3F84C15D2F82C14BB
:1041C000C3F85015D2F83014C3F85415D2F834148B
:1041D000C3F86015D2F83814C3F86415D2F83C144B
:1041E000C3F86815D2F84014C3F86C15D2F844240B
:1041F000C3F87025FFF78AFF10B1384B384A1A60B0
:10420000FFF784FF18B1374BFB22C3F81825FFF7DF
:104210007DFF48B13449354B0A681B6822F00F0214
:1042200003F00F0313430B60FFF770FF18B1304B1F
:104230004FF400721A60FFF75FFF48B14FF0804300
:10424000D3F80024D20744BF6FF00102C3F8002462
:10425000284B1B68082B0ED1274B1B68052B02D857
:10426000264AD35C3BB14FF01023D3F808224FF01D
:104270008043C3F858254FF01023D3F80022002ABA
:1042800003DBD3F80432002B22DA1D490123C1F8E5
:104290000435FFF74FFF4FF010201224C0F8004202
:1042A000FFF748FFC0F80442FFF744FF0023C1F8BE
:1042B0000435FFF73FFFBFF34F8F1249124BCA6817
:1042C00002F4E0621343CB60BFF34F8F00BFFDE702
:1042D0000E4B0F4A1A6010BD00C000408C560040C3
:1042E0004881030000F00040E40E00405802001036
:1042F000409602403001001034010010C8810000D7
:1043000000E0014000ED00E00400FA05D0000020CC
:104310000090D0030E4B70B553F82040013053F895
:104320002060A64200D870BDD4E9003528469847E1
:1043300065B1EB6830B10028B8BF4042FF28A8BF84
:10434000FF2018705A7842F001025A700834E8E7EA
:10435000AC75000070B5054610B90024204670BD4C
:104360000378002BF9D00F4A0F4C1646944208D11F
:104370000D4CB442F1D0204602F0DBFE50B91834A7
:10438000F7E7204602F0D5FE10B12368AB42E5D036
:104390001834EBE72168284602F0FBFC0028EED138
:1043A000DCE700BFD47200005C720000F8B5044680
:1043B0000E464FF02003EFF3118783F31288BFF30B
:1043C0006F8F01F001FC31460546204602F02FFEBA
:1043D000042C0CD10A490B4A0B488F2302F099FC9C
:1043E0000A4802F096FC07488F2102F0BEFB87F3D3
:1043F0001188BFF36F8F2846BDE8F840FDF79CBEDB
:10440000F6810000D4810000B47600001382000021
:10441000114CA26892F90E20002A08B509DA0F495A
:104420000F48104A272302F074FC0E48272102F09F
:104430009CFB4FF02002EFF3118382F31288BFF34D
:104440006F8F01F0CFFFA061FDF79EFA0028F0D139
:10445000FDF750FBEDE700BF200900206982000056
:10446000B47600004882000030B5002387B00122F6
:10447000CDE904230F22CDE902320D4C0D4A019300
:104480000D49182304EBC01403FB00234FF4B0754F
:10449000009305FB0011094B4FF4A072204601F078
:1044A00015FD637B23F00403637307B030BD00BFC9
:1044B000C801002020090020800F002011440000C6
:1044C00008B50A4B012202201A70FFF723FF02F001
:1044D00057F90320FFF71EFF01F05CFDFCF77AF8A7
:1044E000034A137B23F00103137308BD89090020DD
:1044F000480200200248034A0021121A02F060BC60
:10450000A8010020480B002080B5DFF8D880A6B0B5
:1045100088F308882D4D2E4E6B69DFF8CC9043F45C
:10452000007300246B61E02385F82230EC772C7651
:104530006C76AC7685F820406B6A43F4E0236B62BE
:1045400085F82340FDF7A2FDFDF7CEFA4FF0FF33CB
:10455000AB62EB62FDF7CAFEFDF700FE40F201130D
:10456000ADF8243006ABB360CDE91F4402F0E0FDA6
:104570002046FFF7CFFE0120164DFFF7CBFE01F0DE
:104580008DF9154B0593012314490094CDE903439C
:104590004FF480624B46CDE901442846F56101F0B5
:1045A00095FC6A7B22F004026A730746284600F0F5
:1045B000C1FD2046FFF758FF094BF3604A463946D4
:1045C00028463475C6F80480FDF7C8FB00ED00E00E
:1045D000200900204802002091820000600B00208A
:1045E000C801002000190020C14400002DE9F0415D
:1045F000164D174C174EA846AC420CD91649174811
:104600003C23324602F085FB154802F082FB3C2138
:10461000304602F0AAFA444502D30020BDE8F081FA
:10462000D4E9042141EA020313F003030BD1E0684B
:10463000A361834201D12034DEE7A7690F60013313
:10464000A1611144F5E76FF01500E7E75401002080
:104650005401002096820000BB820000B476000066
:10466000D88200002DE9F74304460E46904699464D
:1046700000F108054FF02003EFF3118783F3128850
:10468000BFF36F8F284601F015FD68B9244A25490C
:104690002548812302F03DFB2448294602F039FBDE
:1046A0001F48812102F061FA284601F021FDA3692B
:1046B000EBB133601B68A361E3690133E36100245C
:1046C000284601F005FD68B9154A19491648AC237A
:1046D00002F01FFB1748294602F01BFB1048AC21D3
:1046E00002F043FA87F31188BFF36F8F13E058EAA3
:1046F000090203D133606FF00B04E1E72246CDE9F4
:1047000000893946284600F0C7FE044618B90A4B0E
:104710009B685B693360204603B0BDE8F08300BF4F
:10472000657B0000B77B0000B4760000CC7B000006
:104730008B7B0000A27B0000200900202DE9F041C6
:1047400004460E4600F108054FF02003EFF31187F1
:1047500083F31288BFF36F8F284601F0ABFC68B972
:10476000224A23492348812302F0D3FA22482946CA
:1047700002F0CFFA1D48812102F0F7F9284601F036
:10478000B7FCD4F81880B8F1000F0FD1204601F023
:1047900035F858B132684261C0F8788000F0CAFC40
:1047A00039462846BDE8F04100F070BA3368A26986
:1047B0001A603368A361E369013BE361284601F0B5
:1047C00087FC68B9094A0D490A48AC2302F0A1FAEE
:1047D0000B48294602F09DFA0448AC2102F0C5F9C5
:1047E00087F31188BFF36F8FBDE8F081657B000010
:1047F000B77B0000B4760000CC7B00008B7B000010
:10480000A27B00002DE9F341044616461F46EFF354
:10481000058363B17049714A7148652302F079FAE2
:10482000704802F076FA6D48652102F09EF94FF06B
:104830002003EFF3118883F31288BFF36F8F6A4868
:1048400001F038FC68B9694A69496548812302F07A
:1048500060FA6549674802F05CFA6448812102F019
:1048600084F9614801F044FCE368634AFBB1A06845
:10487000916888423DD056EA07033CD15A4801F07E
:1048800027FC68B9594A5D495548AC2302F041FA02
:1048900055495B4802F03DFA5448AC2102F065F9F5
:1048A00088F31188BFF36F8F6FF00F001EE09168DF
:1048B00091F90E104C4821610133E3609368A360C5
:1048C00001F006FC68B9494A4C494548AC2302F05E
:1048D00020FA45494A4802F01CFA4448AC2102F04B
:1048E00044F988F31188BFF36F8F002002B0BDE850
:1048F000F0812169DEE791F90E1090F90E309942AE
:10490000A8BF19466FF07E029142B8BF11468B4294
:1049100044DD00F0F1FD0546CDE90067324822464E
:10492000414600F0B9FD0028E0D04FF02003EFF33E
:10493000118683F31288BFF36F8F2B4801F0BAFB07
:1049400068B92A4A2A492648812302F0E2F9264911
:10495000284802F0DEF92548812102F006F92248B4
:1049600001F0C6FB236821699C420AD04BB193F940
:104970000E309942A8BF19466FF07E039942B8BF26
:104980001946A06890F90E30994209D16DB11648C8
:10499000314600F07BF96FF00A00A7E70025BBE77E
:1049A00000F0AAFD0028F2D1F0E70F4801F090FBDB
:1049B00068B90E4A11490A48AC2302F0AAF90A491B
:1049C0000F4802F0A6F90948AC2102F0CEF886F3B0
:1049D0001188BFF36F8FDEE719830000F7820000B4
:1049E000B47600002B83000048090020657B00009E
:1049F000B77B0000CC7B0000200900208B7B0000EF
:104A0000A27B000038B50446EFF3058363B1524939
:104A1000524A5348C72302F07CF9524802F079F910
:104A20004E48C72102F0A1F8A368002B00F08D804A
:104A30004D4DAA68934240F08B80E3684BB94B49D7
:104A40004748464ADF2302F064F94448DF2102F078
:104A50008CF8EFF3058363B13F49454A4048FD2395
:104A600002F057F9434802F054F94148FD2102F0A1
:104A70007CF8AB68DB7B012B0CD13F493C4A3848C2
:104A8000FE2302F046F93B4802F043F93848FE2184
:104A900002F06BF8AA68D37B013BD373E368012B68
:104AA00005D9013BE36000F02DFE002038BD4FF03A
:104AB0002003EFF3118583F31288BFF36F8F2F4824
:104AC00001F0F8FA68B92E4A2E492548812302F0F0
:104AD00020F92A492C4802F01CF92948812102F0CA
:104AE00044F8264801F004FBA068216990F90E30D3
:104AF000994201D000F000FD204600F07FFEA0604A
:104B000058B190F90E2022610022826700F012FB5A
:104B10001A48294600F0BAF8C5E7E060174801F0E6
:104B2000D7FA68B9164A19490D48AC2302F0F1F8D2
:104B30001249174802F0EDF81148AC2102F015F8BF
:104B400085F31188BFF36F8FADE76FF01500ADE708
:104B50004FF0FF30AAE700BF19830000F782000082
:104B6000B47600002B830000200900205083000051
:104B700067830000928300009583000048090020AD
:104B8000657B0000B77B0000CC7B00008B7B0000C6
:104B9000A27B000010B5084C23685BB1FEF718FD3E
:104BA00003462068054A0344BDE810401361002114
:104BB00001F060BC10BD00BF580900202009002092
:104BC000F8B504460D464FF02003EFF3118683F34A
:104BD0001288BFF36F8F234801F06CFA68B9224A3C
:104BE00022492348812302F094F81E49214802F00B
:104BF00090F81D48812101F0B8FF1A4801F078FAB9
:104C00001D4B00224FF4004740F2E73000211A61AB
:104C1000E7FB040100234FF47A72FBF771FA002CD2
:104C2000164B1BDC1860164B1D60FFF7B3FF0D48D9
:104C300001F04EFA68B90C4A12490D48AC2302F053
:104C400068F80849104802F064F80748AC2101F000
:104C50008CFF86F31188BFF36F8FF8BD0228B8BFB1
:104C60000220DFE750090020657B0000B77B0000D1
:104C7000B4760000CC7B00002009002058090020F9
:104C8000540900208B7B0000A27B000038B504464D
:104C90000D46E9B9EFF30583D3B9194BDA699B687F
:104CA0009A4215D001F014FA68B9164A1649174805
:104CB000C32302F02EF81648214602F02AF81148C4
:104CC000C32101F052FFBDE838400020FCF7F6BFD9
:104CD000204601F0FDF968B90A4A0B490B48AC239C
:104CE00002F017F80A48214602F013F80548AC21F3
:104CF00001F03BFF85F31188BFF36F8F38BD00BF14
:104D000020090020657B00008B7B0000B47600004A
:104D1000A27B000038B54FF02003EFF3118583F339
:104D20001288BFF36F8F294801F0C4F968B9284A87
:104D300028492948812301F0ECFF2449274801F044
:104D4000E8FF2348812101F010FF204801F0D0F94D
:104D5000EFF3058363B12249224A1F48FD2301F086
:104D6000D8FF214801F0D5FF1E48FD2101F0FDFECE
:104D70001E4CA268D27B012A0CD11D49194A164843
:104D8000FE2301F0C6FF184801F0C3FF1548FE21BD
:104D900001F0EBFEA268D37B013BD3730B4801F01B
:104DA00097F968B90A4A13490B48AC2301F0B1FFDF
:104DB0000649114801F0ADFF0548AC2101F0D5FED0
:104DC00085F31188BFF36F8F38BD00BF50090020F5
:104DD000657B0000B77B0000B4760000CC7B000050
:104DE00019830000678300009283000020090020DF
:104DF000958300008B7B0000A27B00000C4B994246
:104E000010B50C460BD10B490B480C4A40F2E73366
:104E100001F07FFF094840F2E73101F0A6FED4E936
:104E2000003213605A600023C4E9003310BD00BF94
:104E3000C8010020E8830000B4760000C6830000AB
:104E4000836810B504465BB90B490C480C4A40F224
:104E5000832301F05EFF0A4840F2832101F085FEC2
:104E6000A0682146FFF7CAFF637B23F00203637348
:104E70000023A36010BD00BF09840000B4760000C9
:104E8000C683000038B502461448154D02F09BF960
:104E9000044600B9EC68CAB9AB6863B91149124A53
:104EA0001248892301F035FF114801F032FF0E4806
:104EB000892101F05AFEAB685A7BD20606D1A2695D
:104EC00022B9DA897F2A01D9EB6138BDAB68A342E8
:104ED00001D0FFF75FFEEC61F7E700BF400900205B
:104EE0002009002020840000C6830000B476000062
:104EF0009283000070B590F90D20437B002A044690
:104F000006DA03F07F03437301461F48FFF776FF7D
:104F1000637B63F07F0363731C4B9C4209D11C4984
:104F20001C481D4ABA2301F0F4FE1B48BA2101F0C7
:104F30001CFE1A4A1146556A51F8203F8B4208BFA1
:104F40000023002B38BF0023CBB194F90E6093F9F6
:104F50000E0086420FD0801B00280CDD5968C4E982
:104F600000310C605C609068031B5842BDE87040E3
:104F70005841FFF787BFAB4201D01B68E4E7C4E9A3
:104F800000152C605462EEE740090020C8010020A3
:104F9000E8830000B4760000C683000020090020EA
:104FA00070B504464FF02003EFF3118583F31288A8
:104FB000BFF36F8F2A4801F07DF868B9294A2A4962
:104FC0002A48812301F0A5FE2549294801F0A1FEC8
:104FD0002448812101F0C9FD214801F089F8254BC1
:104FE000254A986811688842194618D1FFF7D2FD02
:104FF0001B4801F06DF868B91A4A20491B48AC23D8
:1050000001F087FE16491E4801F083FE1548AC21C9
:1050100001F0ABFD85F31188BFF36F8F70BD0026E3
:105020001660184A1268BAB1C2897F2A14D8427B26
:10503000D20611D1144A90F90E60126896420BDB29
:10504000124A904208D01A69A24202DCFFF752FFCE
:10505000CCE7121B1A61CBE700230B61C8E700BF46
:1050600050090020657B0000B77B0000B47600008B
:10507000CC7B0000200900204C0900208B7B000025
:10508000A27B00005809002054090020C80100201C
:1050900070B590F90D20437B002A04463EDBDA060A
:1050A0003CD18569002D39D163F07F0343731C4BDC
:1050B000984209D11B491C481C4ABA2301F029FE19
:1050C0001A48BA2101F051FD19490B4653F8200F37
:1050D000984218BF0546002D1A462B464D6A38BF28
:1050E0000023B3B194F90E6093F90E0086420CD000
:1050F000801B002809DD5A68C4E9003214605C6036
:10510000BDE870400020FFF7BDBEAB4201D01B6878
:10511000E7E7C4E900252C604C62F1E770BD00BFF1
:10512000C8010020E8830000B4760000C6830000B8
:105130002009002038B504464FF02003EFF3118515
:1051400083F31288BFF36F8F174800F0B3FF68B97D
:10515000164A17491748812301F0DBFD124916480A
:1051600001F0D7FD1148812101F0FFFC0E4800F04D
:10517000BFFF2046FFF78CFF0B4800F0A9FF68B97E
:105180000A4A0E490B48AC2301F0C3FD06490C48FE
:1051900001F0BFFD0548AC2101F0E7FC85F3118863
:1051A000BFF36F8F38BD00BF50090020657B000042
:1051B000B77B0000B4760000CC7B00008B7B000046
:1051C000A27B000038B504464FF02003EFF31185B1
:1051D00083F31288BFF36F8F1D4800F06BFF68B92F
:1051E0001C4A1D491D48812301F093FD18491C48A4
:1051F00001F08FFD1748812101F0B7FC144800F041
:1052000077FF637B5A0716D4114800F061FF68B935
:10521000104A14491148AC2301F07BFD0C49124897
:1052200001F077FD0B48AC2101F09FFC85F311885C
:10523000BFF36F8F38BD23F0040320466373FFF77D
:1052400027FF29460248BDE83840FFF71FBD00BFD1
:1052500050090020657B0000B77B0000B476000099
:10526000CC7B00008B7B0000A27B000070B5044665
:105270004FF02003EFF3118683F31288BFF36F8F93
:10528000204800F017FF68B91F4A204920488123B1
:1052900001F03FFD1B491F4801F03BFD1A488121E9
:1052A00001F063FC174800F023FF14F80B3C13F0E7
:1052B000280F10D154F8103CA4F1180513B128465A
:1052C000FFF7BEFD14F80B3C23F0140304F80B3C6D
:1052D0002846FFF7DDFE0B4800F0FAFE68B90A4ADF
:1052E0000D490B48AC2301F014FD06490B4801F0B1
:1052F00010FD0548AC2101F038FC86F31188BFF39E
:105300006F8F70BD50090020657B0000B77B0000E7
:10531000B4760000CC7B00008B7B0000A27B0000F9
:1053200010B590F90D20437B002A044606DA03F0FD
:105330007F03437301460648FFF760FD054B9868FD
:10534000031B5842BDE810405841FFF79BBD00BF0A
:10535000400900202009002038B504460D46FFF71B
:10536000DFFF637B43F0020363731DB3174BA5603C
:105370009C4209D116491748174ABA2301F0C9FCC3
:105380001548BA2101F0F1FB2B689D4208BF0023AC
:10539000002B38BF00239BB194F90E1093F90E2017
:1053A000914208D0521A002A05DD5A68C4E9003239
:1053B00014605C6038BD6A68934201D01B68EAE7FC
:1053C0006B68C4E900531C606C60F3E7C8010020FF
:1053D000E8830000B4760000C68300002DE9F041A8
:1053E00004460D4616461F464FF02003EFF3118882
:1053F00083F31288BFF36F8F1F4800F05BFE68B91C
:105400001E4A1F491F48812301F083FC1A491E4888
:1054100001F07FFC1948812101F0A7FB164800F03C
:1054200067FE20462946FFF797FF134800F050FE1D
:1054300068B9124A15491348AC2301F06AFC0E49B9
:10544000134801F066FC0D48AC2101F08EFB88F397
:105450001188BFF36F8F7B1C08BFB6F1FF3F08D0E8
:1054600032463B4604F118000A49BDE8F04100F01D
:1054700097BEBDE8F08100BF50090020657B0000A9
:10548000B77B0000B4760000CC7B00008B7B000073
:10549000A27B00006D52000038B5114B044698689D
:1054A000104B0D4618601146DDE90423FFF796FF07
:1054B000204600F00DFE68B90B4A0C490C48C32386
:1054C00001F027FC0B48214601F023FC0648C321CC
:1054D00001F04BFB2846BDE83840FCF7EFBB00BFAE
:1054E000200900204C090020657B00008B7B000018
:1054F000B4760000A27B0000F8B504460E464FF0DB
:105500002003EFF3118783F31288BFF36F8F3C48BA
:1055100000F0D0FD68B93B4A3B493C48812301F08B
:10552000F8FB37493A4801F0F4FB3648812101F095
:105530001CFB334800F0DCFD637BDA0676B25CD1FD
:10554000A569002D59D103F07F03637331482146CB
:10555000FFF754FC637BA67363F07F0363732E4BEA
:105560009C4209D12D4929482D4ABA2301F0D1FB8B
:105570002B48BA2101F0F9FA2A490B4653F8200FBB
:10558000984218BF0546002D1A462B464D6A38BF73
:1055900000236BB394F90E6093F90E00864223D07A
:1055A000801B002820DD5A68C4E9003214605C606A
:1055B0000120FFF767FC0124114800F089FD68B95C
:1055C000104A19491148AC2301F0A3FB0C491748B4
:1055D00001F09FFB0B48AC2101F0C7FA87F311885B
:1055E000BFF36F8F2046F8BDAB4201D01B68D0E7F8
:1055F000C4E900252C604C62DAE7A6730024DBE7DF
:1056000050090020657B0000B77B0000B4760000E5
:10561000CC7B000040090020C8010020E883000086
:10562000C6830000200900208B7B0000A27B0000C5
:1056300070B50446183000F087FE4FF02003EFF3FA
:10564000118683F31288BFF36F8F254800F032FD77
:1056500068B9244A24492548812301F05AFB20498E
:10566000234801F056FB1F48812101F07EFA1C48B7
:1056700000F03EFD94F90D20637B002A06DA03F06A
:105680007F031C4863732146FFF7B8FB1A4D637B09
:10569000A86843F010036373031B58425841FFF797
:1056A000F1FB0F4800F014FD68B90E4A13490F488A
:1056B000AC2301F02EFB0A49114801F02AFB0948EE
:1056C000AC2101F052FA86F31188BFF36F8FAB68FB
:1056D000A34203D1BDE8704001F06BBD70BD00BFB7
:1056E00050090020657B0000B77B0000B476000005
:1056F000CC7B000040090020200900208B7B0000AB
:10570000A27B000038B54FF02003EFF3118583F33F
:105710001288BFF36F8F2D4800F0CCFC68B92C4A7B
:105720002C492D48812301F0F4FA28492B4801F037
:10573000F0FA2748812101F018FA294C234800F09B
:10574000D7FCA268D27B72B92649274A224840F288
:10575000853301F0DEFA254801F0DBFA224840F2F9
:10576000853101F002FAEFF3058373B120491E4A37
:10577000194840F2863301F0CCFA1C4801F0C9FA0E
:10578000194840F2863101F0F0F9A268D37B013369
:105790000020D373FFF776FB0C4800F099FC68B942
:1057A0000B4A14490C48AC2301F0B3FA07491248DC
:1057B00001F0AFFA0648AC2101F0D7F985F3118862
:1057C000BFF36F8FBDE8384001F0F3BC50090020F3
:1057D000657B0000B77B0000B4760000CC7B000046
:1057E0002009002047840000C68300009283000047
:1057F000198300008B7B0000A27B000038B50446B3
:105800004FF02003EFF3118583F31288BFF36F8FFE
:105810001B4800F04FFC68B91A4A1B491B488123FA
:1058200001F077FA16491A4801F073FA15488121F8
:1058300001F09BF9124800F05BFC204601F0C3FC2C
:10584000044628B1FFF7FCFA04F1180000F07CFDD3
:105850000B4800F03DFC68B90A4A0E490B48AC23DE
:1058600001F057FA06490C4801F053FA0548AC21FB
:1058700001F07BF985F31188BFF36F8F204638BDA7
:1058800050090020657B0000B77B0000B476000063
:10589000CC7B00008B7B0000A27B0000044B00212E
:1058A00003F12002C3E908220846FFF789B900BFC7
:1058B00020090020F8B5EFF3058373B14149424A4E
:1058C000424840F2DC4301F024FA414801F021FA59
:1058D0003D4840F2DC4101F048F94FF02003EFF37E
:1058E000118683F31288BFF36F8F3A4800F0E2FB12
:1058F00068B9394A39493548812301F00AFA3549EE
:10590000374801F006FA3448812101F02EF9354D6F
:10591000304800F0EDFBA9684B7B03F07F034B732D
:1059200005F12000FFF76AFAAC68637B63F07F0340
:1059300063732D4B9C4209D12C492448224ABA2337
:1059400001F0E7F92048BA2101F00FF92B6A284845
:10595000696A834208BF0023002B38BF00235BB372
:1059600094F90E7093F90E20974221D0D21B002A91
:105970001EDD5A68C4E9003214605C600120FFF744
:1059800081FA144800F0A4FB68B9134A19490F487A
:10599000C32301F0BEF90F49174801F0BAF90E48C8
:1059A000C32101F0E2F83046BDE8F840FCF786B9C3
:1059B0008B4201D01B68D2E7C4E900010C606C6225
:1059C000DCE700BF19830000C6830000B476000046
:1059D0009283000050090020657B0000B77B000027
:1059E000CC7B000020090020C8010020E8830000D3
:1059F000400900208B7B0000A27B00002DE9F041D4
:105A000004460D46EFF3058373B14549454A4648C0
:105A10004FF49F6301F07DF9444801F07AF9414861
:105A20004FF49F6101F0A1F854EA050304D1FFF798
:105A300041FF0020BDE8F0816FF001031E1B4FF015
:105A4000FF3363EB0507012E77F1000364DA01F001
:105A5000CAFB06194FF02003EFF3118883F3128875
:105A6000BFF36F8F324800F025FB68B9314A3249E5
:105A70002D48812301F04DF92D49304801F049F9B5
:105A80002C48812101F071F82D4F294800F030FB9E
:105A90002C4BB8681860FFF743FCB8682A492246C7
:105AA0002B46183000F07CFBBA682148537B43F04A
:105AB0001003537300F00CFB68B91E4A23491A48BF
:105AC000C32301F026F91A49214801F022F91948A7
:105AD000C32101F04AF84046FCF7F0F8BB685B7B55
